:02000002D0002C
:1040000000400D0064520D00000006000C00050188
:084010000401BD0B00000000DB
:0440180020500D0027
:10401C0009480A49884208B505D0094A824202D0AB
:10402C00121A00F0B5FF0748074A0021121A00F0D7
:10403C00BDFF014808BD00BFC8E50320D4510D00E9
:10404C0030E6032030E60320F0E7032070B5074E7E
:10405C00074C00F0E1FBA41BA4080025A54200D1ED
:10406C0070BD56F8043B98470135F7E7A8510D0091
:10407C00CC510D0000F04EB808B500F069F8BDE861
:10408C00084000F08BBB00F037BA00F03DBA007866
:10409C00B0FA80F0400970470123037070470000AC
:1040AC0010B5062000F008FF074C207000F0B6FC9D
:1040BC00217800F0FCFA00F02BFF036821789B6854
:1040CC00BDE81040184700BF40E6032010B500F0D3
:1040DC001FFF03680A4C5B699847C0B230282070F8
:1040EC0003D10021072000F0CEFE2378312B05D11F
:1040FC00BDE810400121072000F0C5BE10BD00BF77
:10410C0041E6032010B50446006808B100F0FCF944
:10411C00204610BD08B50121072000F0A3FE0021A8
:10412C00062000F09FFE00F0F3FE2A2100F062FD55
:10413C0000F0EEFE044900F060FD00F0E9FEBDE881
:10414C000840024900F05DBDD9400D00AD400D00A6
:10415C007047000038B50A4C0A4BA36000250320B9
:10416C002560A580A57100F03BF90749074A204658
:10417C0000F0F6FE29460120BDE8384000F038B9C1
:10418C0034E603200000FFFF11410D0030E6032050
:10419C0008B5024B1B689B68019308BD68020300BD
:1041AC0008B5024B1B68DB68019308BD680203006D
:1041BC0008B5024B1B689B68019308BD2C020300D9
:1041CC0008B5024B1B68DB68019308BD2C02030089
:1041DC0008B5024B1B681B69019308BD2C02030038
:1041EC0008B5024B1B685B69019308BD2C020300E8
:1041FC0008B5024B1B685B68019308BD18020300ED
:10420C0008B5024B1B685B69019308BD18020300DB
:10421C0008B5024B1B685B6C019308BD4802030098
:10422C0008B5024B1B689B6C019308BD4802030048
:10423C0008B5024B1B685B69019308BD640203005F
:10424C0008B5024B1B681B68019308BD3C020300B8
:10425C0008B5024B1B68DB68019308BD3C020300E8
:10426C0008B5024B1B681B69019308BD3C02030097
:10427C0008B5024B1B685B69019308BD3C02030047
:10428C0008B5024B1B689B69019308BD3C020300F7
:10429C0008B5024B1B68DB69019308BD3C020300A7
:1042AC0008B5024B1B681B6A019308BD3C02030056
:1042BC0008B5024B1B689B6A019308BD3C020300C6
:1042CC0008B5024B1B68DB68019308BD280203008C
:1042DC0008B5024B1B681B6A019308BD280203003A
:1042EC0008B5024B1B685B6A019308BD28020300EA
:1042FC0008B5024B1B689B6A019308BD280203009A
:10430C0008B5024B1B68DB6A019308BD2802030049
:10431C0008B5024B1B681B6B019308BD28020300F8
:10432C0008B5024B1B685B6B019308BD28020300A8
:10433C0008B5024B1B689B6B019308BD2802030058
:10434C0008B5024B1B68DB6B019308BD2802030008
:10435C0008B5024B1B681B6C019308BD28020300B7
:10436C0008B5024B1B68DB69019308BD30020300E2
:10437C0008B5024B1B681B6A019308BD3002030091
:10438C0008B5024B1B681B68019308BD4C02030067
:10439C0008B5024B1B681B69019308BD4C02030056
:1043AC0008B5024B1B685B69019308BD4C02030006
:1043BC0008B5024B1B689B69019308BD4C020300B6
:1043CC0008B5024B1B68DB69019308BD4C02030066
:1043DC0008B5024B1B681B6A019308BD4C02030015
:1043EC0008B5024B1B685B68019308BD20020300F3
:1043FC0008B5024B1B68DB6A019308BD2002030061
:10440C0008B5034B1B68D3F88830019308BD000036
:10441C002002030008B5034B1B68D3F894300193BA
:10442C0008BD00002002030008B5024B1B685B6846
:10443C00019308BD4002030008B5024B1B689B6842
:10444C00019308BD4002030008B5024B1B68DB68F2
:10445C00019308BD4002030008B5024B1B681B69A1
:10446C00019308BD4002030008B5024B1B685B6951
:10447C00019308BD4002030008B5024B1B689B6901
:10448C00019308BD4002030008B5024B1B68DB69B1
:10449C00019308BD4002030008B5024B1B681B6A60
:1044AC00019308BD4002030008B5024B1B681B6B4F
:1044BC00019308BD4002030008B5024B1B685B6BFF
:1044CC00019308BD4002030008B5024B1B681B6C2E
:1044DC00019308BD4002030008B5024B1B685B6CDE
:1044EC00019308BD4002030008B5024B1B68DB6B4F
:1044FC00019308BD4402030008B5024B1B681B68FE
:10450C00019308BD1C02030008B5024B1B685B68D5
:10451C00019308BD1C02030008B5024B1B685B6CC1
:10452C00019308BD1C020300002240681146FFF7EE
:10453C00B3BF002240681146FFF7BEBF406800229F
:10454C00FFF7B2BF4068002281F00101FFF79CBF6A
:10455C00002340681A461946FFF78EBF00234068B7
:10456C001A461946FFF780BF002240681146FFF734
:10457C0073BF002240681146FFF75EBF40680022FF
:10458C000221FFF761BF002340681A46FFF74CBFBA
:10459C00024B03225A60024A1A60704744E6032019
:1045AC003C500D0010B5044608462170FFF7D8FEAC
:1045BC0000236360204610BD10B5094B094C022244
:1045CC0000201A60084B2060A080A071A360FFF748
:1045DC0007FF2046054A0649BDE8104000F0C0BC64
:1045EC0058E603204CE603200000FFFF30E60320D2
:1045FC0011410D0010B50446006808B1FFF710FE1C
:10460C00204610BD10B58368044613B10322014641
:10461C009847204610BD000010B5064C00232046DC
:10462C002360FFF7F5FD2046034A0449BDE810401E
:10463C0000F096BC5CE6032030E6032001460D003A
:10464C00F8B506460D468F180024BD420CD03368D1
:10465C0015F8011B9B6830469847031E01DB1C4470
:10466C00F3E7002C08BF1C462046F8BD13B50446E2
:10467C00084659B1019100F0C5FC23680199DB682B
:10468C000246204602B0BDE81040184702B010BDEB
:10469C0003689B68184738B50D210546FFF7F8FFEE
:1046AC000A2104462846FFF7F3FF204438BD38B5ED
:1046BC000546FFF7EDFF04462846FFF7ECFF2044C4
:1046CC0038BD30B58BB000238DF82430012A98BF4B
:1046DC000A2209AC0D46B1FBF2F101FB125303F0B7
:1046EC00FF03092B94BF30333733DBB2AA4204F8F3
:1046FC00013DEFD92146FFF7B9FF0BB030BD0023C8
:10470C0040681A461946FFF7AFBE0000014B024A3B
:10471C001A60704760E6032070500D00024B1A6857
:10472C00024B1A60704700BFC8E5032064E6032003
:10473C0010B50446FFF766FF204610BD0348044A37
:10474C0004490023836000F00BBC00BF68E6032023
:10475C0030E603203D470D00014B1860704700BF49
:10476C00CCE5032008B50B4B43B100F057F90368B7
:10477C001B699847002801DDAFF30080064B43B15D
:10478C0000F0CAF903681B699847002801DDAFF3F4
:10479C00008008BD000000000000000008B5FFF715
:1047AC00E1FFFFF72DFD014B186008BDD4E7032096
:1047BC000248034A0349121A00F0EABB00F4032032
:1047CC0004F40320D0510D0007B5002300931A46C2
:1047DC006FF07701FFF71EFE03B05DF804FB0000DD
:1047EC0007B543880A2B08D0502B0BD1094B1B68FB
:1047FC004BB103B05DF804EB1847FFF7E5FF03B0CE
:10480C005DF804FB002300931A466FF07701FFF765
:10481C0001FEF4E77CE6032038B5124C1248134D28
:10482C000021FFF779FE2368AB42114B0CBF01222C
:10483C0000221A7002D0FFF7BBFF2560FFF7D8FCEF
:10484C00044600F0BBFB0B4B13B12046AFF30080CA
:10485C0000210848FFF748FEBDE838400648002113
:10486C00FFF7CEBD00F4032065470D001E1C279AF0
:10487C0078E6032000000000ED470D00704710B5EE
:10488C001821044600F071FB204610BDF0B5037DE5
:10489C00062B8DB00E4600F104074FF0000412D029
:1048AC0000F1080515F8011D0A223046FFF709FF33
:1048BC00AF42044419D0002CF4D02E213046FFF71F
:1048CC00E7FE0444EEE72F236A4639460A208DF8AA
:1048DC000040FFF7ADFC684600F094FB33680246DD
:1048EC00DB68694630469847044620460DB0F0BD5B
:1048FC0010B5054B0446112240F8043B002100F092
:10490C0055FB204610BD00BF98500D000346074ACA
:10491C0010B543F8042B01F1100251F8044B43F885
:10492C00044B9142F9D10A781A7010BD98500D00C1
:10493C0010B59DF8084044EA032343EA024242EAD8
:10494C00016104234160037510BD000013B5054BD4
:10495C000360CB7800938B784A780978FFF7E8FFEF
:10496C0002B010BD98500D0041747047704708B5E7
:10497C000021007CFFF71CFD40EAE07008BD08B583
:10498C000121007CFFF714FD40EAE07008BD08B57A
:10499C00007CFFF705FD20EAE07008BD08B5007C3F
:1049AC00FFF7F6FC20EAE07008BD13B50446007C66
:1049BC000191FFF7F5FC0028019901DC607C20B126
:1049CC00207CFFF7FDFC20EAE07002B010BD007CFB
:1049DC00FFF7FEBC10B51421044600F0C6FA2046C1
:1049EC0010BD000010B54FF47A7304460846002140
:1049FC00C4E90113044B2360012320746374114632
:104A0C00FFF7BEFC204610BDAC500D0010B51422B3
:104A1C000446002100F0CAFA204610BD10B5104C17
:104A2C0088B003A8FFF7F2FF2178BFF35B8F11F07A
:104A3C00010111D120460191FFF729FB019958B1D1
:104A4C0003AA0848FFF7CEFF2046FFF725FB064ACE
:104A5C000649044800F084FA024808B010BD00BFB3
:104A6C0080E6032084E6032030E6032079490D001C
:104A7C0070474174704708B5007CFFF719FC20EAB9
:104A8C00E07008BD08B5007CFFF7EAFB20EAE07097
:104A9C0008BD08B5007CFFF7F3FB40EAE07008BDE9
:104AAC0008B5007CFFF7E4FB40EAE07008BD007C31
:104ABC00FFF7EEBB37B5457C04462DB1207C03B027
:104ACC00BDE83040FFF7C4BB007C0191FFF7F0FB61
:104ADC0000280199F2DC284603B030BD10B5142132
:104AEC00044600F042FA204610BD000010B54FF00D
:104AFC00000C0446084611464FF47A72C4E901C210
:104B0C00044A22600122207462741A46FFF798FB53
:104B1C00204610BDDC500D0013B50E4C2178BFF3B0
:104B2C005B8F11F0010112D120460191FFF7AFFA12
:104B3C00019960B1084A094B0948FFF7D7FF204695
:104B4C00FFF7AAFA074A0849054800F009FA044891
:104B5C0002B010BD98E603209CE6032020E703205A
:104B6C00A4E7032030E603207D4A0D007047F8B51A
:104B7C00064615460C468F18BC4206D0336814F80E
:104B8C00011B9B6830469847F6E72846F8BD007C29
:104B9C000022FFF79DBB007C0021FFF7A1BB007C2E
:104BAC000021FFF7A5BB007C0021FFF7A9BB007C0F
:104BBC000021FFF7ADBB10B51421044600F0D5F968
:104BCC00204610BD10B54FF47A73044608460021F8
:104BDC00C4E90113034B236020741146FFF7B8FBA3
:104BEC00204610BD0C510D000A46007C002301210B
:104BFC00FFF766BBC9B2FFF7F7BF007C0022FFF7D7
:104C0C0097BB007C0022FFF79BBB0022406811463B
:104C1C00FFF722BC002240681146FFF73DBC002282
:104C2C0040681146FFF748BC40680022FFF73CBCC7
:104C3C004068002281F00101FFF726BC0023406888
:104C4C001A461946FFF718BC002240681146FFF7B8
:104C5C00F3BB406800220221FFF7F6BB002340683B
:104C6C001A46FFF7E1BB0000024B04225A60024ACD
:104C7C001A607047B8E7032034510D0000234068D8
:104C8C001A46FFF7D1BB406800220221FFF7DCBBBC
:104C9C00002240681146FFF7CFBB00224068114646
:104CAC00FFF7DABB002340681A461946FFF7DCBB56
:104CBC00002340681A461946FFF7DEBB4068002106
:104CCC00FFF702BC40680021FFF706BC40680022D9
:104CDC0081F00101FFF7D8BB40680022FFF7E4BB6D
:104CEC00002240681146FFF7E7BB002240681146DE
:104CFC00FFF7D2BB2DE9F043002495B016460D46C4
:104D0C000746FFF7F5FD214618220EA8009400F087
:104D1C004DF94023CDE90C3421466B460CAA3046A4
:104D2C00FFF73EFA044600284CD102460121686880
:104D3C00FFF792FB0221804622466868FFF78CFB46
:104D4C00009E81462146002E3CD000293AD1736842
:104D5C00022B03D00A2B11D0F669F4E7B8F1000F3F
:104D6C000AD0716906A8043107ADFFF7EFFD0FCD2E
:104D7C003C1D0FC42B6823704146EDE7B9F1000FC1
:104D8C0001D14946E8E77469102201A800F00EF938
:104D9C0006238DF8143001AD04F10803183418689B
:104DAC0059682A4603C20833A3421546F7D101A914
:104DBC0006A807ADFFF7AAFD0FCD3C1D0FC42B684D
:104DCC002370DEE70098FFF7E3F9384615B0BDE82D
:104DDC00F0830000024B034A1A6000225A607047AD
:104DEC00C0E7032070510D00232813B502D9002011
:104DFC0002B010BDA0F10B03022B1AD8174C21786E
:104E0C00BFF35B8F11F001010BD120460191FFF72D
:104E1C003EF9019928B11248FFF7C4FB2046FFF771
:104E2C003BF90F4B1878FFF7A3FA0028DFD10120CC
:104E3C00DEE7012809D800F06BF80021007CFFF7B1
:104E4C006FFA80F00100C0B2D2E709380128EED821
:104E5C00FFF762FE007CFFF723FAF2E7C8E70320B6
:104E6C00CCE70320232838B504460D460AD8FF2981
:104E7C0008D0FFF7B9FF28B129462046BDE83840D5
:104E8C00FFF796B938BD38B504460D46FFF798F9CB
:104E9C00FF2810D0062804D84D2323FA00F0C307AE
:104EAC0009D42046FFF7A0FF28B129462046BDE8CB
:104EBC003840FFF78DB938BD10B50446FFF780F9BF
:104ECC00031FDBB2012B08D92046FFF78DFF20B161
:104EDC002046BDE81040FFF783B9002010BD00004C
:104EEC0038B50023202543801423044603808560B5
:104EFC0005610649284600F03AF8044960602846E6
:104F0C0000F035F8E060204638BD00BFA4510D001C
:104F1C0030B50F4D2978BFF35B8F11F0010487B0CA
:104F2C0013D12846FFF7B3F878B101A8FFF7D8FFE3
:104F3C0001AA21460748FFF745FE2846FFF7ACF8C3
:104F4C00054A0649034800F00BF8024807B030BD8B
:104F5C00D8E70320DCE7032030E60320794B0D0073
:104F6C000B460146184600F005B8FFF78EB8FFF760
:104F7C008AB8000010B5054C13462CB10A46014600
:104F8C000220AFF3008010BD2046FCE700000000BB
:104F9C000A44914200F1FF3300D1704710B511F86B
:104FAC00014B03F8014F9142F9D110BD0244034665
:104FBC00934200D1704703F8011BF9E738B50D4B4C
:104FCC001D68AB6B04467BB91820FFF795FA0A4AAB
:104FDC000A4BA863C0E90023094B83600B23838130
:104FEC0001220023C0E90423AB6B00221C615A612F
:104FFC0038BD00BFCCE503200E33CDAB34126DE6CB
:10500C00ECDE0500034613F8012B002AFBD1181A1D
:10501C00013870471D400D0059400D0081400D00B6
:10502C0085400D00000000000000000000000000A2
:10503C0093450D0089450D007F450D0075450D000C
:10504C0069450D005D450D00C94C0D00D14C0D009E
:10505C0051450D0049450D003F450D0035450D00EE
:10506C00014D0D006170700025592D256D2D2564A5
:10507C005425483A254D3A2553257A0061736374BB
:10508C00696D6500000000000000000099480D00EB
:10509C0089480D008B480D00000000000000000046
:1050AC0079490D00E1490D00B7490D004D460D0041
:1050BC00A9490D007B490D008B490D00DB490D0002
:1050CC009B490D0075490D00000000000000000018
:1050DC007D4A0D00E94A0D00C14A0D004D460D00F8
:1050EC00914A0D00AD4A0D009F4A0D00BB4A0D00C0
:1050FC007F4A0D00834A0D000000000000000000F4
:10510C00794B0D00C34B0D009B4B0D007B4B0D00E1
:10511C00A34B0D00AB4B0D00B34B0D00BB4B0D0067
:10512C000000000000000000694C0D005F4C0D00F9
:10513C00554C0D00174C0D000B470D00494C0D0044
:10514C00C94C0D00D14C0D003D4C0D00354C0D00E3
:10515C002B4C0D00214C0D00014D0D0000000000EA
:10516C0000000000894C0D00934C0D009D4C0D006F
:10517C00A74C0D00B14C0D00BD4C0D00C94C0D00E1
:10518C00D14C0D00D94C0D00E54C0D00ED4C0D0033
:10519C00F74C0D00014D0D000000000061410D00A9
:1051AC009D450D00C5450D0025460D0019470D0008
:1051BC0029470D0049470D00754C0D00E14D0D00C0
:0451CC0000000000DF
:0451D00000000000DB
:1051D40088500D00D0E5032000000000000000000E
:1051E40000000000000000000000000000000000BB
:1051F40000000000000000000000000000000000AB
:10520400000000000000000000000000000000009A
:10521400000000000000000000000000000000008A
:10522400000000000000000000000000000000007A
:08523400000000000000000072
:10523C00FFFFFFFF00000102030405060708090A2F
:10524C000B0C0D0E0F101112131415161718191A2A
:08525C001B1C1D1E1F20280071
:045264007856341232
:04000003D000401CCD
:00000001FF
